:020000020000FC
:1000000004E00EBF0FE50DBF00E00ABB05E50BBB2A
:100010000FEF04BB00E010E020E005BB00C0C89B70
:100020002BD0CA9B11D0CC9B2FD0CE9B19D0F7CF11
:10003000CA9BFECF0895CE9BFECF0895C89BFECFEE
:100040000895CC9BFECF089538D00395003129F157
:10005000202B2295212B25BBEBDF2FD022270895C3
:100060002CD0E9DF1395103101F1202B2295212BA3
:1000700025BB23D02227089520D00027212B25BB84
:10008000DDDF1BD02227089518D0DBDF1127202BBE
:10009000229525BB12D0222708950FD00027212BAF
:1000A00025BBC6DF0AD02227BECF07D01127202BC1
:1000B000229525BB02D02227B2CF43E654E65A95BB
:0E00C000F1F74A95D9F741E04A95F1F7089516
:00000001FF
