:100000000C942A000C9434000C9434000C943400AA
:100010000C9434000C9434000C9434000C94340090
:100020000C9434000C9434000C9434000C94340080
:100030000C9434000C9434000C9434000C94340070
:100040000C9434000C9434000C9434000C94340060
:100050000C94340011241FBECFE5D4E0DEBFCDBF29
:100060000E9436000C9493000C9400001ABA8FEF93
:100070008BBB84BB15BA15BA20E0C89929C083EDA3
:1000800090E30197F1F700C000002336D0F42F5F12
:10009000C89BFECF8DEC289F812D1124982F96951B
:1000A00096959695990F392F330F330F930F322F63
:1000B000391B932F9295907F869586958695892BEF
:1000C00085BB83ED90E30197F1F700C00000D5CF29
:1000D000CF99D3CF83ED90E30197F1F700C00000F3
:1000E0002223D1F02150CF9BFECF8DEC289F812D74
:1000F0001124982F969596959695990F392F330F31
:10010000330F930F322F391B932F9295907F869543
:1001100086958695892B85BB83ED90E30197F1F752
:0A01200000C00000AACFF894FFCF42
:00000001FF
