:100000000C942A000C9434000C9434000C943400AA
:100010000C9434000C9434000C9434000C94340090
:100020000C9434000C9434000C9434000C94340080
:100030000C9434000C9434000C9434000C94340070
:100040000C9434000C9434000C9434000C94340060
:100050000C94340011241FBECFE5D4E0DEBFCDBF29
:100060000E947E000C94AC000C9400008FEF8ABBC1
:100070008BBB80EA87BB83E58DB91EB80895FC0170
:10008000808190E002C0959587956A95E2F7F1E04E
:100090008F2781700895FC01408121E030E002C08B
:1000A000220F331F6A95E2F7242B20830895FC0169
:1000B000908121E030E002C0220F331F6A95E2F701
:1000C0002095292320830895CF93DF93C82FD62F1F
:1000D000682F8BE390E00E945700DFB967E08EE263
:1000E00090E00E943F008111F9CF6C2F8BE390E0EC
:1000F0000E944B008FB1DF91CF91089514BA81E037
:1001000085BB0E94360060E083E390E00E943F00E0
:100110008823C9F32FE788E391E021508040904085
:10012000E1F700C0000060E083E390E00E943F0040
:100130008111F9CF2FE788E391E021508040904072
:10014000E1F700C000006EEF86E00E94640060EFFF
:0C01500087E00E946400D7CFF894FFCF36
:00000001FF
