:100000000C942A000C9434000C9434000C943400AA
:100010000C9434000C9434000C9434000C94340090
:100020000C9434000C9434000C9434000C94340080
:100030000C9434000C9434000C9434000C94340070
:100040000C9434000C9434000C9434000C94340060
:100050000C94340011241FBECFE5D4E0DEBFCDBF29
:100060000E9452000C9465000C94000080E487BB51
:1000700083E48DB91EB80895FC01808190E002C030
:10008000959587956A95E2F7F1E08F27817008953D
:1000900067E08EE290E00E943C008111F9CF8FB1C1
:1000A0001FB808958FEF84BB15BA0E9436000E94D6
:1000B000480085BB2FEF89E698E1215080409040B1
:0E00C000E1F700C0000015BAF2CFF894FFCFB0
:00000001FF
