:100000000C942A000C9434000C9434000C943400AA
:100010000C9434000C9434000C9434000C94340090
:100020000C9434000C9434000C9434000C94340080
:100030000C9434000C9434000C945B000C94340049
:100040000C9434000C9434000C9434000C94340060
:100050000C94340011241FBECFE5D4E0DEBFCDBF29
:100060000E9440000C9480000C94000021B3226098
:1000700021BB90BD89B988E98AB98EE880BD089511
:100080001ABA1BBA8CE090E00E943600789481E6A0
:100090008CBF12BE8DE083BF83E088BF82E089BF42
:1000A00082E687B980E680BF8BEB86B9FFCF5D9B88
:1000B000FECF8CB908951F920F920FB60F921124A4
:1000C0002F933F934F935F936F937F938F939F9360
:1000D000AF93BF93EF93FF9385B10E945700FF91B9
:1000E000EF91BF91AF919F918F917F916F915F91B0
:1000F0004F913F912F910F900FBE0F901F90189529
:04010000F894FFCFA1
:00000001FF
