:020000020000FC
:100000000C94020004E00EBF0FE50DBF00E00ABB38
:100010000FEF0BBB08E007BB00E008BB03E008BF25
:1000200002E009BF00E002BF0027442700C031D032
:1000300030D038D06DD02DD047D03DD069D068D0E9
:1000400025D066D026D025D02DD062D022D045D064
:100050003BD05ED05DD01AD05BD01BD01AD019D067
:1000600057D044D031D027D01DD052D048D047D01F
:100070003DD04ED029D031D027D04AD049D006D05B
:1000800047D046D045D044D043D0D1CF00E003BFC5
:1000900008950EEE0CBF00E002BF0AE103BF38D0A6
:1000A00037D0089500E002BF04ED0CBF0AE103BFA2
:1000B0002FD02ED008950DEB0CBF00E002BF0AE157
:1000C00003BF26D025D0089502EB0CBF00E002BF8D
:1000D0000AE103BF1DD01CD008950EE90CBF00E05B
:1000E00002BF0AE103BF14D013D008950DE80CBF7E
:1000F00000E002BF0AE103BF0BD00AD008950EE76B
:100100000CBF00E002BF0AE103BF02D001D0089596
:10011000D9E0E7E3F9ECFA95F1F7EA95D9F7DA9542
:0A012000C1F7D1E0DA95F1F7089578
:00000001FF
