:100000000C942A000C9447000C9447000C94470071
:100010000C9447000C9447000C9447000C94470044
:100020000C9447000C9447000C9447000C94470034
:100030000C9447000C9447000C9447000C94470024
:100040000C9447000C9447000C9447000C94490012
:100050000C94470011241FBECFE5D4E0DEBFCDBF16
:1000600010E0A0E6B0E0E8E8F4E002C005900D92F0
:10007000A236B107D9F720E0A2E6B0E001C01D9298
:10008000A636B207E1F70E94BC010C9442020C9420
:1000900000001F920F920FB60F9211248F939F931F
:1000A0008091620090916300019690936300809329
:1000B00062009F918F910F900FBE0F901F90189527
:1000C000FC01808190E002C0959587956A95E2F7E2
:1000D000F1E08F2781700895FC01208181E090E09C
:1000E00002C0880F991F6A95E2F782230895FC01E8
:1000F000408121E030E002C0220F331F6A95E2F711
:10010000242B20830895FC01908121E030E002C07F
:10011000220F331F6A95E2F7209529232083089543
:1001200085BB64E085E390E00E94830065E085E3A1
:1001300090E00E94830066E085E390E00E947700F3
:1001400083EC99E00197F1F700C0000066E085E3D9
:1001500090E00E948300089584B3807F84BB64E0B4
:1001600085E390E00E94830065E085E390E00E94D3
:10017000770066E085E390E00E94770083EC99E0E9
:100180000197F1F700C0000066E085E390E00E946F
:10019000830063E083E390E00E946C00811115C04E
:1001A00093E09A95F1F7000066E085E390E00E9405
:1001B000770083EC99E00197F1F700C0000066E05A
:1001C00085E390E00E948300D4CF66E085E390E071
:1001D0000E94770083EC99E00197F1F700C00000DE
:1001E00066E085E390E00E94830064E085E390E0B0
:1001F0000E94830065E085E390E00E94830084B361
:100200008F6784BB0895CF93C82F82958F7085BB6D
:1002100064E085E390E00E94770065E085E390E08C
:100220000E94830066E085E390E00E94770083EC03
:1002300099E00197F1F700C0000066E085E390E0E7
:100240000E948300CF70C5BB64E085E390E00E940C
:10025000770065E085E390E00E94830066E085E337
:1002600090E00E94770083EC99E00197F1F700C0DD
:10027000000066E085E390E00E94830064E085E38F
:1002800090E00E9483000E94AC00CF910895CF932C
:10029000C82F82958F7085BB64E085E390E00E9453
:1002A000830065E085E390E00E94830066E085E3DB
:1002B00090E00E94770083EC99E00197F1F700C08D
:1002C000000066E085E390E00E948300CF70C5BB2C
:1002D00064E085E390E00E94830065E085E390E0C0
:1002E0000E94830066E085E390E00E94770083EC43
:1002F00099E00197F1F700C0000066E085E390E027
:100300000E9483000E94AC00CF9108958FE784BBC8
:1003100085EA9EE00197F1F700C0000083E00E94AB
:10032000900081EE94E00197F1F700C0000083E0B7
:100330000E94900091E29A95F1F7000083E00E94FC
:10034000900081E28A95F1F7000082E00E9490001F
:1003500091E29A95F1F7000088E20E94470188E057
:100360000E94470181E00E94470186E00E94470108
:100370008CE00E94470108950E94860180E80E9457
:1003800047011ABA8FEF8BBB78948CE78CBF83E060
:1003900088BF82E089BF12BE8091620090916300A5
:1003A000893E934014F013BE12BE60E089E390E0F2
:1003B0000E946000882381F313BE12BE83ED90E398
:1003C0000197F1F700C0000060E089E390E00E942F
:1003D00060008111F9CF83ED90E30197F1F700C040
:1003E00000008091620090916300893E9340F4F494
:1003F0001092630010926200809165008068809383
:100400006400809164000E944701809160000E9416
:100410000301809160008F5F809360008091600095
:100420008B3568F181E48093600029C010926300ED
:1004300010926200809165008F5F8093650081E477
:100440008093600080916500803198F48091650010
:10045000806880936400809164000E9447018091CD
:1004600060000E940301809160008F5F80936000B4
:1004700006C081E00E9447018FEF809365008AE00B
:0804800083BF8ACFF894FFCF7F
:02048800410031
:00000001FF
