:100000000C942A000C9447000C9447000C94470071
:100010000C9447000C9447000C9447000C94470044
:100020000C9447000C9447000C9447000C94470034
:100030000C9447000C9447000C9447000C94470024
:100040000C9447000C9447000C94D4010C94470086
:100050000C94470011241FBECFE5D4E0DEBFCDBF16
:1000600010E0A0E6B0E0E0E4F8E002C005900D92F8
:10007000AA3BB107D9F720E0AAEBB0E001C01D927E
:10008000A13CB207E1F70E9499030C941E040C9462
:100090000000FC01808190E002C0959587956A95EB
:1000A000E2F7F1E08F2781700895FC01208181E063
:1000B00090E002C0880F991F6A95E2F782230895A5
:1000C000FC01408121E030E002C0220F331F6A951D
:1000D000E2F7242B20830895FC01908121E030E099
:1000E00002C0220F331F6A95E2F72095292320834F
:1000F00008958BBB67E08BE390E00E946C0066E0A4
:100100008BE390E00E946C0064E08BE390E00E943F
:1001100060008FE19EE40197F1F700C0000064E009
:100120008BE390E00E946C0008958AB3807F8ABBC5
:1001300067E08BE390E00E946C0066E08BE390E068
:100140000E94600064E08BE390E00E9460008FE119
:100150009EE40197F1F700C0000064E08BE390E0BB
:100160000E946C0063E089E390E00E9455008111D9
:1001700015C09AE19A95F1F700C064E08BE390E036
:100180000E9460008FE19EE40197F1F700C000003B
:1001900064E08BE390E00E946C00D4CF64E08BE3DA
:1001A00090E00E9460008FE19EE40197F1F700C0AB
:1001B000000064E08BE390E00E946C0067E08BE35A
:1001C00090E00E946C0066E08BE390E00E946C007F
:1001D0008AB38F6D8ABB0895CF93C82F82958F7095
:1001E0008BBB67E08BE390E00E94600066E08BE3EE
:1001F00090E00E946C0064E08BE390E00E9460005D
:100200008FE19EE40197F1F700C0000064E08BE30A
:1002100090E00E946C00CF70CBBB67E08BE390E076
:100220000E94600066E08BE390E00E946C0064E056
:100230008BE390E00E9460008FE19EE40197F1F76C
:1002400000C0000064E08BE390E00E946C0067E077
:100250008BE390E00E946C000E949500CF9108957E
:10026000CF93C82F82958F708BBB67E08BE390E0B4
:100270000E946C0066E08BE390E00E946C0064E0FA
:100280008BE390E00E9460008FE19EE40197F1F71C
:1002900000C0000064E08BE390E00E946C00CF702F
:1002A000CBBB67E08BE390E00E946C0066E08BE3E1
:1002B00090E00E946C0064E08BE390E00E9460009C
:1002C0008FE19EE40197F1F700C0000064E08BE34A
:1002D00090E00E946C000E949500CF9108951092CA
:1002E000C0001092BF001092BE001092BD0010928C
:1002F000BC001092BB001092BA0063E088E390E06B
:100300000E946C0081E00E94300180E80E94300170
:1003100008958FED8ABB8FE295E70197F1F700C052
:10032000000083E00E9479008FE097E20197F1F7E7
:1003300000C0000083E00E94790087EC90E0019704
:10034000F1F700C0000083E00E94790087EC90E0A4
:100350000197F1F700C0000082E00E94790087EC6D
:1003600090E00197F1F700C0000088E20E943001A0
:1003700088E00E94300181E00E94300186E00E9406
:1003800030018CE00E9430010895CF93DF93FC018F
:1003900003C00E94EC00FE01EF01219680818111D3
:1003A000F8CFDF91CF9108951F920F920FB60F9261
:1003B00011242F933F934F935F936F937F938F936A
:1003C0009F93AF93BF93CF93EF93FF9362E086E346
:1003D00090E00E944900882339F062E086E390E0D3
:1003E0000E9449008111F9CF8091BA00813009F053
:1003F00054C086B382958F708093BB008091BB0000
:10040000882309F44AC08091BB00853008F045C0BC
:10041000E091BB00F0E0E05AFF4F90818091BD0079
:10042000890F8093BD0087EC0E9430018091BD0050
:100430008A3070F489E790E00E94C5018091BD0088
:10044000805D0E94EC008FE990E00E94C50125C00C
:1004500083E990E00E94C5018091BD00CDEC8C9FA6
:10046000812D1124869586958695805D0E94EC00ED
:100470008091BD008C9FC12D1124C695C695C6954F
:10048000CC0F9C2F990F990FC90F8C1B805D0E9478
:10049000EC008FE990E00E94C501FF91EF91CF91B0
:1004A000BF91AF919F918F917F916F915F914F918C
:1004B0003F912F910F900FBE0F901F901895DF92D4
:1004C000EF92FF920F931F93CF93DF93CDB7DEB7D9
:1004D00060970FB6F894DEBF0FBECDBF80E1E9E6AE
:1004E000F0E0DE01119601900D928A95E1F7D12C92
:1004F00044C0ED2CF12C81E090E00D2C02C0880F5F
:10050000991F0A94E2F7809585BB000000E014E093
:1005100031C0612F83E390E00E944900882341F1BC
:100520002FE788E391E0215080409040E1F700C040
:100530000000612F83E390E00E9449008111F9CF10
:100540002FE788E391E0215080409040E1F700C020
:100550000000F701EE0FFF1FEE0FFF1F81E090E09C
:100560008C0F9D1FE80FF91FE00FF11D80810AC05D
:100570001F5F0F5F183068F2D39493E09D1508F069
:10058000B8CFB5CF60960FB6F894DEBF0FBECDBF23
:10059000DF91CF911F910F91FF90EF90DF90089521
:1005A000CF9381E00E9430018CE790E00E94C5016A
:1005B00080EC0E9430018DE00E9430010E945F02B9
:1005C0008093C0008091C0008A3021F08091C000EB
:1005D0008B30A1F78091C0008A3031F41092BF00B7
:1005E00081E40E94EC0006C081E08093BF0082E4B9
:1005F0000E94EC000E945F028093C0008091C000C6
:10060000813021F08091C0008230A1F78091C0003C
:10061000813031F41092BE0081E30E94EC0006C0EC
:1006200081E08093BE0082E30E94EC008CE00E9497
:10063000300181E00E94300180E80E9430018BE8A7
:1006400090E00E94C501E091BF00F0E08091BE0003
:10065000EE0FFF1FEB59FF4FE80FF11D80818A302D
:1006600080F4E091BF00F0E08091BE00EE0FFF1F2C
:10067000EB59FF4FE80FF11D8081805D0E94EC0077
:1006800031C0E091BF00F0E08091BE00EE0FFF1F8F
:10069000EB59FF4FE80FF11D8081CDEC8C9F812D30
:1006A0001124869586958695805D0E94EC00E091E8
:1006B000BF00F0E08091BE00EE0FFF1FEB59FF4F2F
:1006C000E80FF11D80818C9FC12D1124C695C69520
:1006D000C695CC0F9C2F990F990FC90F8C1B805D6D
:1006E0000E94EC008FE990E00E94C50180EC0E941E
:1006F000300180EC0E94300185E990E00E94C50144
:1007000081E08093BA00E091BF00F0E08091BE00EC
:10071000EE0FFF1FEB59FF4FE80FF11D9081809105
:10072000BD00891780F31092BA000E94B003CF91E8
:1007300008950E94890180E80E9430018BE087BB08
:1007400087EF88BB8FE084BB8FEF85BB789480EE0A
:100750008ABF80E484BF80E28BBF0E94D002FFCFBB
:10076000CF9381E00E94300180E80E94300183EA4B
:1007700090E00E94C50180EC0E94300181EB90E086
:100780000E94C5018091BD00E091BF00F0E0909112
:10079000BE00EE0FFF1FEB59FF4FE90FF11D9081D7
:1007A000891B8093BC008091BC008A3070F489E77B
:1007B00090E00E94C5018091BC00805D0E94EC0029
:1007C0008FE990E00E94C50125C083E990E00E9476
:1007D000C5018091BC00CDEC8C9F812D11248695A4
:1007E00086958695805D0E94EC008091BC008C9F70
:1007F000C12D1124C695C695C695CC0F9C2F990F77
:10080000990FC90F8C1B805D0E94EC008FE990E06E
:100810000E94C50163E088E390E00E9460002FEF32
:1008200083ED90E3215080409040E1F700C000004C
:100830000E946F010E94D002CF910895F894FFCFDB
:10084000000102050A0309171F0F000E0D01020324
:100850000C0405060B0708090A243000456C69677B
:10086000652050726F647563746F00496E736572B2
:1008700074612024005469656E6573202430302E25
:10088000303000456E74726567616E646F2E2E2E77
:0A0890000043616D62696F200000F3
:00000001FF
