:020000020000FC
:100000000C9404000C94280004E00EBF0FE50DBF13
:100010000FEF0ABB00E00BBB789402E005BF00EED7
:100020000ABF00E40BBF00E001BB0FEF02BB01E021
:1000300000C020D000E41ED002E11CD001E61AD09E
:100040000DE218D00DE616D00FE314D00FE7F1CF74
:1000500005D0829BFECF0BBB01D01895E5E6F4EAF4
:10006000FA95F1F7EA95D9F7E1E0EA95F1F70000A2
:1000700000000895E1E2F4E6FA95F1F7EA95D9F780
:0400800000000895DF
:00000001FF
