:100000000C942A000C947E000C9447000C9447003A
:100010000C9447000C9447000C9447000C94470044
:100020000C9447000C9447000C9447000C94470034
:100030000C9447000C9447000C9447000C94470024
:100040000C9447000C9447000C9447000C94470014
:100050000C94470011241FBECFE5D4E0DEBFCDBF16
:1000600010E0A0E6B0E0ECEAF3E002C005900D92EB
:10007000A436B107D9F720E0A4E6B0E001C01D9294
:10008000A836B207E1F70E945C000C94D4010C94EE
:100090000000FC010FB6F894609164007091650057
:1000A00080916600909167000FBE309721F06083C9
:1000B000718382839383089511BA8FEF82BB8ABBC9
:1000C0001BBA87BB18BA789480EE8ABF82E085BFDE
:1000D00080E48BBF80E090E00E944900CB010E9449
:1000E0006601FFCFFC01808190E002C09595879565
:1000F0006A95E2F7F1E08F27817008951F920F92C1
:100100000FB60F9211242F933F934F935F936F93EA
:100110007F938F939F93AF93BF93EF93FF93CF936F
:10012000DF931F92CDB7DEB783ED90E30197F1F730
:1001300000C0000062E080E390E00E947200811144
:10014000F9CF83ED90E30197F1F700C000000E9422
:10015000610166E070E00E94ED008F5F8983898114
:10016000813019F41BBA88BB24C08981823021F404
:1001700084E28BBB18BA1DC08981833029F481E8E1
:100180008BBB81E088BB15C08981843021F485EA6E
:100190008BBB18BA0EC08981853029F485EA8BBBE8
:1001A00081E088BB06C08981863019F487EE8BBB5D
:1001B00018BA0F90DF91CF91FF91EF91BF91AF915E
:1001C0009F918F917F916F915F914F913F912F916F
:1001D0000F900FBE0F901F90189597FB072E16F4E7
:1001E000009407D077FD09D00E94010107FC05D0DB
:1001F0003EF4909581959F4F0895709561957F4F3E
:100200000895AA1BBB1B51E107C0AA1FBB1FA6175D
:10021000B70710F0A61BB70B881F991F5A95A9F7AF
:1002200080959095BC01CD0108958F929F92AF92D9
:10023000BF92CF92DF92EF92FF92CF93DF93EC01C8
:10024000688179818A819B8161157105810591059C
:1002500021F464E279ED8BE597E02DE133EF41E0A5
:1002600050E00E94710149015A019B01AC01A7EACB
:10027000B1E40E9490016B017C01ACEEB4EFA501EA
:1002800094010E949E01DC01CB018C0D9D1DAE1DD1
:10029000BF1DB7FF03C00197A109B04888839983A8
:1002A000AA83BB839F77DF91CF91FF90EF90DF9080
:1002B000CF90BF90AF909F908F9008950E941501AE
:1002C000089580E690E00E9415010895A0E0B0E056
:1002D0008093600090936100A0936200B0936300EC
:1002E0000895052E97FB1EF400940E94880157FD87
:1002F00007D00E94A30107FC03D04EF40C948801A0
:1003000050954095309521953F4F4F4F5F4F089541
:1003100090958095709561957F4F8F4F9F4F089571
:100320000E94C501A59F900DB49F900DA49F800DC4
:10033000911D11240895B7FF0C9490010E94900123
:10034000821B930B0895A1E21A2EAA1BBB1BFD0171
:100350000DC0AA1FBB1FEE1FFF1FA217B307E407A4
:10036000F50720F0A21BB30BE40BF50B661F771FFC
:10037000881F991F1A9469F76095709580959095DC
:100380009B01AC01BD01CF010895A29FB001B39FB5
:10039000C001A39F700D811D1124911DB29F700D8E
:0C03A000811D1124911D0895F894FFCFD9
:0403AC00010000004C
:00000001FF
