:100000000C942A000C943F000C943F000C943F0089
:100010000C943F000C943F000C943F000C943F0064
:100020000C943F000C943F000C943F000C943F0054
:100030000C943F000C943F000C943F000C943F0044
:100040000C943F000C943F000C943F000C943F0034
:100050000C943F0011241FBECFE5D4E0DEBFCDBF1E
:1000600010E0A0E6B0E0E0EBF1E002C005900D92F8
:10007000A037B107D9F70E94BA000C94D6000C94AF
:100080000000FC01808190E002C0959587956A95FB
:10009000E2F780FD02C081E0089580E00895DF92DC
:1000A000EF92FF920F931F93CF93DF93CDB7DEB7FD
:1000B00060970FB6F894DEBF0FBECDBF80E1E0E6DB
:1000C000F0E0DE01119601900D928A95E1F7D12CB6
:1000D0003EC0ED2CF12C81E090E00D2C02C0880F89
:1000E000991F0A94E2F780958BBB000000E014E0B2
:1000F0002BC0612F89E390E00E944100882311F119
:1001000083ED90E30197F1F700C00000612F89E3D0
:1001100090E00E9441008111F9CF83ED90E30197B7
:10012000F1F700C00000F701EE0FFF1FEE0FFF1FF9
:1001300081E090E08C0F9D1FE80FF91FE00FF11D8B
:1001400080810AC01F5F0F5F183098F2D39493E04C
:100150009D1508F0BECFBBCF60960FB6F894DEBFFA
:100160000FBECDBFDF91CF911F910F91FF90EF9008
:10017000DF9008958FE08ABB8FEF8BBB84BB15BAED
:1001800081BB12BAC0E00E944F008F3021F415BA33
:1001900012BAC0E0F8CF8A30B0F79C2F92959F70CA
:1001A000C295C07FC82BC5BB92BBEDCFF894FFCFE3
:1001B0000D0C0B0A0E090603000805020F070401C7
:00000001FF
