:020000020000FC
:040000000C94270035
:10004C0040C004E00EBF0FE50DBF00E00ABB01E8A5
:10005C000BBB0FEF04BB01BB00E005BB02BB7894EC
:10006C000BE90CBF03E008BF02E009BF00E002BFD0
:10007C000027112722273327442700C0C89B03C021
:10008C00CF9B11C0FBCF48D0C89BFECF45D00027DB
:10009C00112722273327442702BF03BF05BB02BB0E
:1000AC000CE003BFEBCF38D0CF9BFECF35D0002771
:1000BC00112722273327442702BF03BF05BB02BBEE
:1000CC00DDCF4395443609F01895442713951A3023
:1000DC0031F0022F0295012B02BB35BB189511276D
:1000EC002395263031F0022F0295012B02BB35BB34
:1000FC001895112722273395353031F0022F0295B0
:10010C00012B02BB35BB189500271127222733275B
:10011C00442702BF03BF1895D6E0E7E3F9ECFA9544
:10012C00F1F7EA95D9F7DA95C1F7000000000895C8
:00000001FF
