:100000000C942A000C9434000C9434000C943400AA
:100010000C9434000C9434000C9434000C94340090
:100020000C9434000C9434000C9434000C94340080
:100030000C9434000C9434000C9450000C94340054
:100040000C9434000C9434000C9434000C94340060
:100050000C94340011241FBECFE5D4E0DEBFCDBF29
:100060000E9436000C9466000C9400001ABA1BBA69
:100070008FEF81BB12BA12BE81E68CBF8DE083BFC9
:1000800014BC13BC89E685BD83E088BF82E089BFCC
:1000900082E487B980E680BF8BEB86B97894FFCF86
:1000A0001F920F920FB60F9211248F939F9384B1DA
:1000B00095B1969587959695879583BD14BC9F912C
:1000C0008F910F900FBE0F901F901895F894FFCF4F
:00000001FF
