:100000000C942A000C9447000C9447000C94470071
:100010000C9447000C9447000C9447000C94470044
:100020000C9447000C9447000C9447000C94470034
:100030000C9447000C9447000C9447000C94470024
:100040000C9447000C9447000C9447000C94470014
:100050000C94470011241FBECFE5D4E0DEBFCDBF16
:1000600010E0A0E6B0E0E2E5F9E002C005900D92F4
:10007000A836B107D9F720E0A8E6B0E001C01D928C
:10008000AC36B207E1F70E94A8010C94A7040C94C7
:100090000000FC01208181E090E002C0880F991FE0
:1000A0006A95E2F782230895FC01408121E030E067
:1000B00002C0220F331F6A95E2F7242B2083089594
:1000C000FC01908121E030E002C0220F331F6A95CD
:1000D000E2F7209529232083089585BB64E085E31A
:1000E00090E00E94600065E085E390E00E9460007F
:1000F00066E085E390E00E9454008FE097E201976C
:10010000F1F700C0000066E085E390E00E94600027
:10011000089584B3807F84BB64E085E390E00E940F
:10012000600065E085E390E00E94540066E085E3AE
:1001300090E00E9454008FE097E20197F1F700C031
:10014000000066E085E390E00E94600063E083E3E6
:1001500090E00E944900811115C09DE09A95F1F749
:10016000000066E085E390E00E9454008FE097E293
:100170000197F1F700C0000066E085E390E00E947F
:100180006000D4CF66E085E390E00E9454008FE0E9
:1001900097E20197F1F700C0000066E085E390E088
:1001A0000E94600064E085E390E00E94600065E0EA
:1001B00085E390E00E94600084B38F6784BB08955C
:1001C000CF93C82F82958F7085BB64E085E390E064
:1001D0000E94540065E085E390E00E94600066E0C4
:1001E00085E390E00E9454008FE097E20197F1F7D9
:1001F00000C0000066E085E390E00E946000CF70E0
:10020000C5BB64E085E390E00E94540065E085E3AF
:1002100090E00E94600066E085E390E00E94540058
:100220008FE097E20197F1F700C0000066E085E3F8
:1002300090E00E94600064E085E390E00E9460002E
:100240000E948900CF910895CF93C82F82958F7017
:1002500085BB64E085E390E00E94600065E085E393
:1002600090E00E94600066E085E390E00E94540008
:100270008FE097E20197F1F700C0000066E085E3A8
:1002800090E00E946000CF70C5BB64E085E390E021
:100290000E94600065E085E390E00E94600066E0F7
:1002A00085E390E00E9454008FE097E20197F1F718
:1002B00000C0000066E085E390E00E9460000E94BC
:1002C0008900CF9108958FE784BB87E99AE301976E
:1002D000F1F700C0000083E00E946D0087E893E121
:1002E0000197F1F700C0000083E00E946D0095E8DF
:1002F0009A95F1F7000083E00E946D0085E88A95E9
:10030000F1F7000082E00E946D0095E89A95F1F700
:10031000000088E20E94240188E00E94240181E01C
:100320000E94240186E00E9424018CE00E942401A6
:100330000895CF93DF93FC0103C00E94E000FE010B
:10034000EF01219680818111F8CFDF91CF9108953F
:100350000E94630180E80E9424011ABA1BBA87E454
:1003600087B910BE85E986B981E00E94240180E842
:100370000E94240180E690E00E94990186B1806489
:1003800086B966E086E290E00E9449008111F9CFCB
:1003900084B195B12FE739EA43E021503040404025
:1003A000E1F700C00000BC01660F771F660F771FE2
:1003B000680F791F80E090E00E94080320E030E0A1
:1003C00040E85AE30E94EE0360936800709369006E
:1003D00080936A0090936B0060916800709169004F
:1003E00080916A0090916B0020E030E048EC52E48C
:1003F0000E94EE030E945B0420E030E048EC52E4EF
:100400000E946002609368007093690080936A00A4
:1004100090936B0080EC0E942401609168007091C1
:10042000690080916A0090916B000E9445030E94D0
:10043000D20280E3860F0E94E0008EE20E94E0007C
:10044000609168007091690080916A0090916B00E2
:1004500020E030E048EC52E40E94EE036093680034
:100460007093690080936A0090936B0060916800BC
:100470007091690080916A0090916B000E94D20295
:10048000CB0164E670E00E947F04CAE0D0E0BE01C8
:100490000E947F0480E3860F0E94E0006091680064
:1004A0007091690080916A0090916B000E94D20265
:1004B000CB01BE010E947F04805D0E94E0005ECF00
:1004C0000E9474020C949C030E94950358F00E94B1
:1004D0008E0340F029F45F3F29F00C945C03511126
:1004E0000C94E8030C948B030E94AD0368F39923EA
:1004F000B1F3552391F3951B550BBB27AA27621720
:100500007307840738F09F5F5F4F220F331F441F2C
:10051000AA1FA9F335D00E2E3AF0E0E832D0915060
:100520005040E695001CCAF72BD0FE2F29D0660F4D
:10053000771F881FBB1F261737074807AB07B0E890
:1005400009F0BB0B802DBF01FF2793585F4F3AF096
:100550009E3F510578F00C945C030C94E8035F3FD8
:10056000E4F3983ED4F3869577956795B795F7951C
:100570009F5FC9F7880F911D9695879597F9089504
:10058000E1E0660F771F881FBB1F621773078407A0
:10059000BA0720F0621B730B840BBA0BEE1F88F7AF
:1005A000E09508950E94D9026894B1110C94E80373
:1005B00008950E94B50388F09F5798F0B92F9927A6
:1005C000B751B0F0E1F0660F771F881F991F1AF03E
:1005D000BA95C9F714C0B13091F00E94E703B1E0B9
:1005E00008950C94E703672F782F8827B85F39F0B8
:1005F000B93FCCF3869577956795B395D9F73EF4D7
:1006000090958095709561957F4F8F4F9F4F08957E
:10061000E89409C097FB3EF490958095709561959C
:100620007F4F8F4F9F4F9923A9F0F92F96E9BB2752
:100630009395F695879577956795B795F111F8CFCE
:10064000FAF4BB0F11F460FF1BC06F5F7F4F8F4F39
:100650009F4F16C0882311F096E911C0772321F02F
:100660009EE8872F762F05C0662371F096E8862FC7
:1006700070E060E02AF09A95660F771F881FDAF71E
:10068000880F9695879597F908950E94CF0390F06B
:100690009F3748F4911116F00C94E80360E070E085
:1006A00080E89FEB089526F41B16611D711D811DC6
:1006B0000C9462030C947D0397F99F6780E870E0C7
:1006C00060E00895882371F4772321F09850872BF8
:1006D000762F07C0662311F499270DC09051862B01
:1006E00070E060E02AF09A95660F771F881FDAF7AE
:1006F000880F9695879597F908959F3F31F091500F
:1007000020F4879577956795B795880F911D9695F5
:10071000879597F908959FEF80EC089500240A9437
:100720001616170618060906089500240A941216CC
:100730001306140605060895092E0394000C11F4FF
:10074000882352F0BB0F40F4BF2B11F460FF04C0AC
:100750006F5F7F4F8F4F9F4F089557FD9058440F05
:10076000551F59F05F3F71F04795880F97FB991F10
:1007700061F09F3F79F087950895121613061406CD
:10078000551FF2CF4695F1DF08C01616170618065A
:10079000991FF1CF869571056105089408950E940F
:1007A000B503A0F0BEE7B91788F4BB279F3860F403
:1007B0001616B11D672F782F8827985FF7CF86957B
:1007C00077956795B11D93959639C8F30895E89488
:1007D000BB2766277727CB0197F908950E9401046C
:1007E0000C949C030E948E0338F00E94950320F025
:1007F000952311F00C945C030C948B0311240C943E
:10080000E8030E94AD0370F3959FC1F3950F50E08C
:10081000551F629FF001729FBB27F00DB11D639FB2
:10082000AA27F00DB11DAA1F649F6627B00DA11D58
:10083000661F829F2227B00DA11D621F739FB00DFE
:10084000A11D621F839FA00D611D221F749F33276E
:10085000A00D611D231F849F600D211D822F762F07
:100860006A2F11249F5750409AF0F1F088234AF0E4
:10087000EE0FFF1FBB1F661F771F881F9150504050
:10088000A9F79E3F510580F00C945C030C94E8039B
:100890005F3FE4F3983ED4F3869577956795B795D7
:1008A000F795E7959F5FC1F7FE2B880F911D9695F1
:1008B000879597F908950E94B503E8F09E37E8F010
:1008C0009639B8F49E3848F4672F782F8827985FB8
:1008D000F9CF86957795679593959539D0F3B62F8F
:1008E000B1706B0F711D811D20F487957795679509
:1008F00093950C9462030C947D030C94E80397FB8E
:10090000072E16F4009407D077FD09D00E949304B7
:1009100007FC05D03EF4909581959F4F0895709502
:1009200061957F4F0895AA1BBB1B51E107C0AA1F09
:10093000BB1FA617B70710F0A61BB70B881F991F80
:100940005A95A9F780959095BC01CD010895F8942A
:02095000FFCFD7
:08095200566F6C74616A6500C8
:00000001FF
