:020000020000FC
:100000000C94020004E00EBF0FE50DBF00E00ABB38
:100010000FEF0BBB0FEF07BB00E408BB00271AE094
:10002000442751E0662700C0C89B04C0CC9B1AC07F
:10003000FBCFFACF30D0C89BFECF2DD055276130F3
:10004000C1F3410F4A3F41F0C698C79800E002BF94
:100050004CBF0CE603BFE8CFC698C79A552761E0AE
:10006000F5CFE2CF18D0CC9BFECF15D0662751300C
:10007000C1F3411B403041F0C698C79800E002BF71
:100080004CBF0CE603BFD0CF002703BFC69AC7986A
:1000900051E06627C9CFD1EEECEEEA95F1F7DA959B
:0C00A000D9F7D8E0DA95F1F700000895D8
:00000001FF
