:100000000C942A000C9447000C9447000C94470071
:100010000C9447000C9447000C9447000C94470044
:100020000C9447000C9447000C9447000C94470034
:100030000C9447000C9447000C94A7000C944700C4
:100040000C9447000C9447000C9447000C94490012
:100050000C94470011241FBECFE5D4E0DEBFCDBF16
:1000600010E0A0E6B0E0E4E6F9E002C005900D92F1
:10007000A639B107D9F720E0A6E9B0E001C01D928A
:10008000AB39B207E1F70E94F0030C94B0040C9472
:1000900000001F920F920FB60F9211240F900FBE07
:1000A0000F901F901895FC01808190E002C09595FB
:1000B00087956A95E2F7F1E08F2781700895FC013A
:1000C000208181E090E002C0880F991F6A95E2F7D5
:1000D00082230895FC01408121E030E002C0220F1C
:1000E000331F6A95E2F7242B20830895FC01908149
:1000F00021E030E002C0220F331F6A95E2F720951D
:10010000292320830895CF93DF9300D01F92CDB78A
:10011000DEB79A8389836B8361E08CE390E00E9471
:100120005F008111F9CF89819A819FBB8EBB8B8142
:100130008DBBF8948CB384608CBB8CB382608CBB19
:1001400078940F900F900F90DF91CF9108951F92A8
:100150000F920FB60F9211242F933F934F935F93FB
:100160006F937F938F939F93AF93BF93EF93FF937F
:1001700065B18091990090919A0081159240C0F4E8
:100180008091990090919A009093980080939700A5
:100190008091990090919A000E948300809199002B
:1001A00090919A00019690939A008093990005C0CF
:1001B00013BE12BE81E08093960012BEFF91EF91B4
:1001C000BF91AF919F918F917F916F915F914F916F
:1001D0003F912F910F900FBE0F901F901895CF93C6
:1001E000DF93EC0161E08CE390E00E945F008111FD
:1001F000F9CFDFBBCEBB8CB381608CBB8DB3DF91FD
:10020000CF91089585BB64E085E390E00E9476007D
:1002100065E085E390E00E94760066E085E390E08B
:100220000E946A0083EC99E00197F1F700C000009A
:1002300066E085E390E00E947600089584B3807FB5
:1002400084BB64E085E390E00E94760065E085E38E
:1002500090E00E946A0066E085E390E00E946A00F8
:1002600083EC99E00197F1F700C0000066E085E3B8
:1002700090E00E94760063E083E390E00E945F00DC
:10028000811115C093E09A95F1F7000066E085E3CF
:1002900090E00E946A0083EC99E00197F1F700C0BA
:1002A000000066E085E390E00E947600D4CF66E02F
:1002B00085E390E00E946A0083EC99E00197F1F7F2
:1002C00000C0000066E085E390E00E94760064E0F4
:1002D00085E390E00E94760065E085E390E00E946F
:1002E000760084B38F6784BB0895CF93C82F82951F
:1002F0008F7085BB64E085E390E00E946A0065E052
:1003000085E390E00E94760066E085E390E00E943D
:100310006A0083EC99E00197F1F700C0000066E005
:1003200085E390E00E947600CF70C5BB64E085E372
:1003300090E00E946A0065E085E390E00E9476000C
:1003400066E085E390E00E946A0083EC99E0019703
:10035000F1F700C0000066E085E390E00E947600BF
:1003600064E085E390E00E9476000E941E01CF9138
:1003700008950F931F93CF93DF9300D01F92CDB7B3
:10038000DEB719821A821B8230E017C0E1E0F0E08C
:10039000EC0FFD1FE30FF11D9DEC899F912D1124A2
:1003A000969596959695492F440F242F220F220F4C
:1003B000240F821B8083892F3F5F8111E7CF02E0EA
:1003C00010E00CC0E1E0F0E0EC0FFD1FE00FF11FCA
:1003D0008081805D0E94750101501109112394F7FD
:1003E0000F900F900F90DF91CF911F910F91089573
:1003F000FF920F931F93CF93DF9300D000D000D0D4
:10040000CDB7DEB78C01FE01319686E0DF011D928B
:100410008A95E9F7F12C30C04F2D50E09801ADECF2
:10042000BCEC0E94A1049695879596958795969524
:1004300087959C01220F331F880F991F880F991FE2
:10044000880F991F820F931F9801281B390B440FA7
:10045000551FE1E0F0E0EC0FFD1FE40FF51F3183C5
:10046000208398010E94A1048C011695079516958A
:10047000079516950795F3940115110569F602E0A5
:1004800010E00FC0F801EE0FFF1F81E090E08C0F2D
:100490009D1FE80FF91F8081805D0E94750101504A
:1004A000110911237CF726960FB6F894DEBF0FBE14
:1004B000CDBFDF91CF911F910F91FF900895CF9302
:1004C000C82F82958F7085BB64E085E390E00E9421
:1004D000760065E085E390E00E94760066E085E3C3
:1004E00090E00E946A0083EC99E00197F1F700C068
:1004F000000066E085E390E00E947600CF70C5BB07
:1005000064E085E390E00E94760065E085E390E09A
:100510000E94760066E085E390E00E946A0083EC2A
:1005200099E00197F1F700C0000066E085E390E0F4
:100530000E9476000E941E01CF9108958FE784BB30
:1005400085EA9EE00197F1F700C0000083E00E9479
:10055000020181EE94E00197F1F700C0000083E012
:100560000E94020191E29A95F1F7000083E00E9457
:10057000020181E28A95F1F7000082E00E94020107
:1005800091E29A95F1F7000088E20E945F0288E00C
:100590000E945F0281E00E945F0286E00E945F028B
:1005A0008CE00E945F020895CF93DF93FC0103C0AB
:1005B0000E947501FE01EF01219680818111F8CF23
:1005C000DF91CF910895CF92DF92FF920F931F9307
:1005D000CF93DF93CDB7DEB760970FB6F894DEBF49
:1005E0000FBECDBF80E1E0E6F0E0DE0111960190A4
:1005F0000D928A95E1F7C12CD12C43C081E090E0A7
:100600000C2C02C0880F991F0A94E2F7809582BBD8
:10061000000000E010E02FC06894FF24F2F8F00E14
:100620006F2D80E390E00E945300882311F183ED49
:1006300090E30197F1F700C000006F2D80E390E098
:100640000E9453008111F9CF83ED90E30197F1F7F8
:1006500000C00000CC0CDD1CCC0CDD1C81E090E067
:100660008C0F9D1FC80ED91EF601E00FF11F80816F
:100670000EC00F5F1F4F0430110574F29FEFC91AAF
:10068000D90A84E0C816D1040CF4B8CFB4CF609670
:100690000FB6F894DEBF0FBECDBFDF91CF911F9193
:1006A0000F91FF90DF90CF900895CF92DF92FF924D
:1006B0000F931F93CF93DF93CDB7DEB760970FB63D
:1006C000F894DEBF0FBECDBF80E1E0E6F0E0DE01D2
:1006D000119601900D928A95E1F7C12CD12C56C04C
:1006E00081E090E00C2C02C0880F991F0A94E2F779
:1006F000809582BB000000E010E041C08091960030
:10070000813071F40E945F0280E80E945F0280E7FE
:1007100090E00E94D40280EC0E945F020E941304C9
:100720006894FF24F2F8F00E6F2D80E390E00E94B1
:100730005300882311F183ED90E30197F1F700C096
:1007400000006F2D80E390E00E9453008111F9CFEB
:1007500083ED90E30197F1F700C00000CC0CDD1CA5
:10076000CC0CDD1C81E090E08C0F9D1FC80ED91EC3
:10077000F601E00FF11F80810FC00F5F1F4F0430A3
:1007800011050CF4BBCF9FEFC91AD90A84E0C81633
:10079000D1040CF4A5CFA1CF60960FB6F894DEBFBC
:1007A0000FBECDBFDF91CF911F910F91FF90DF90D2
:1007B000CF9008950E9455038230E1F713BE12BE18
:1007C00081E00E945F0280E80E945F028DE790E076
:1007D0000E94D40280EC0E945F020E941304EACFC0
:1007E0000E949E0280E80E945F021ABA1BBA8FE044
:1007F00081BB8FEF82BB83EF8CBF12BE8DE083BFC6
:1008000083E088BF82E089BF80E687B980BF8BEB39
:1008100086B9789481E00E945F028AE890E00E94A5
:10082000D4020E94DA038091990090919A00019776
:1008300090939A00809399008091990090919A00EA
:100840000E94EF00C82F80EC0E945F028C2F0E9454
:10085000B90185EC0E945F028091990090919A0005
:100860000E94F8010E94E302813031F580919900E5
:1008700090919A00892BB1F38091990090919A0000
:10088000019790939A00809399008091990090919C
:100890009A000E94EF00C82F80EC0E945F028C2F0C
:1008A0000E94B90185EC0E945F02809199009091AD
:1008B0009A000E94F801D6CF833059F52091990013
:1008C00030919A00809197009091980028173907ED
:1008D00048F68091990090919A00019690939A0021
:1008E000809399008091990090919A000E94EF0066
:1008F000C82F80EC0E945F028C2F0E94B90185EC0A
:100900000E945F028091990090919A000E94F801E4
:10091000A9CF823009F0A6CF81E00E945F0280E873
:100920000E945F028AE890E00E94D40210929A002E
:10093000109299001092960012BE8DE083BF0E9423
:10094000DA03A29FB001B39FC001A39F700D811D68
:100950001124911DB29F700D811D1124911D0895C8
:04096000F894FFCF39
:100964000102030A0405060B0708090C0E000F0D0B
:10097400454550524F4D206C6C656E6100556C744A
:10098400696D6F732076616C2E0053656E73616EB2
:06099400646F2E2E2E0000
:00000001FF
