:100000000C942A000C943F000C943F000C943F0089
:100010000C943F000C943F000C943F000C943F0064
:100020000C943F000C943F000C943F000C943F0054
:100030000C943F000C943F000C943F000C943F0044
:100040000C943F000C943F000C943F000C943F0034
:100050000C943F0011241FBECFE5D4E0DEBFCDBF1E
:1000600010E0A0E6B0E0E0E2F2E002C005900D9200
:10007000A438B107D9F70E94B8000C940E010C9473
:100080000000FC01808190E002C0959587956A95FB
:10009000E2F7F1E08F2781700895DF92EF92FF92EF
:1000A0000F931F93CF93DF93CDB7DEB760970FB653
:1000B000F894DEBF0FBECDBF80E1E0E6F0E0DE01E8
:1000C000119601900D928A95E1F7D12C3EC0ED2C4E
:1000D000F12C81E090E00D2C02C0880F991F0A944A
:1000E000E2F780958BBB000000E014E02BC0612F8D
:1000F00089E390E00E944100882311F18FE493ECA2
:100100000197F1F700C00000612F89E390E00E94A1
:1001100041008111F9CF8FE493EC0197F1F700C012
:100120000000F701EE0FFF1FEE0FFF1F81E090E0D0
:100130008C0F9D1FE80FF91FE00FF11D80810AC091
:100140001F5F0F5F183098F2D39493E09D1508F06D
:10015000BECFBBCF60960FB6F894DEBF0FBECDBF4B
:10016000DF91CF911F910F91FF90EF90DF90089555
:10017000CF93DF93CDB7DEB764970FB6F894DEBFA9
:100180000FBECDBF8FE08ABB8FEF8BBB84BB15BA90
:1001900087BB12BE88E28CBF8CE683BF8AE0E0E7B3
:1001A000F0E0DE01119601900D928A95E1F78AE068
:1001B000EAE7F0E0DE011B9601900D928A95E1F7E7
:1001C00010E00E944D00893071F41930D0F71F5FA4
:1001D000E1E0F0E0EC0FFD1FE10FF11D8081880FE1
:1001E000880F85BBEECF813071F4112351F311508C
:1001F000E1E0F0E0EC0FFD1FE10FF11D8081880FC1
:10020000880F85BBDECF8D30E1F6EBE0F0E0EC0F40
:10021000FD1FE10FF11D80818CBFD3CFF894FFCF7C
:100220000D0C0B0A0E090603000805020F07040156
:100230000008040C020A060E01092825221F1B18BB
:0402400014110D0A7E
:00000001FF
