:100000000C942A000C9434000C9434000C943400AA
:100010000C9434000C9434000C9434000C94340090
:100020000C9434000C9434000C9434000C94340080
:100030000C9434000C9434000C9434000C94340070
:100040000C9434000C9434000C9434000C94340060
:100050000C94340011241FBECFE5D4E0DEBFCDBF29
:100060000E9436000C9476000C9400001ABA8FEFB0
:100070008BBB84BB15BA89B38F3A39F158F48F37EB
:1000800069F118F48F3669F12FC08F3821F18F395B
:10009000F9F02AC08F3D81F028F48F3B99F08F3C16
:1000A00071F022C08F3E29F08F3FF1F48FE385BBC2
:1000B000E2CF86E085BBDFCF8BE585BBDCCF8FE46D
:1000C00085BBD9CF86E685BBD6CF8DE685BBD3CFA2
:1000D0008DE785BBD0CF87E485BBCDCF8FE785BBD0
:1000E000CACF87E685BBC7CF15BAC5CFF894FFCF77
:00000001FF
