:020000020000FC
:040000000C94270035
:10004C0031C004E00EBF0FE50DBF00E00ABB07BBDB
:10005C000FEF0BBB08BB0FEF04BB00E005BB7894A4
:10006C0009EF0CBF03E008BF02E009BF00E002BFCC
:10007C00002744275527662700C0B09B01C0FDCF41
:10008C0029D0B09BFECF26D061E0442700E002BF10
:10009C00C899FECFC89BFECF0AE003BF00C06130F9
:1000AC00F1F3EBCFC89B02C043951895002703BF13
:1000BC0002BF01E0400F4A3030F445BB0027442713
:1000CC005527662718954A5053954A30E0F75295B4
:1000DC00452BF3CFD1EEECEEEA95F1F7DA95D9F7A3
:0A00EC00D8E0DA95F1F7000008955E
:00000001FF
